:100000000C9464010C94BC130C94E3130C948C01B9
:100010000C948C010C948C010C9470020C948C0147
:100020000C948C010C948C010C948C010C948C011C
:100030000C948C010C948C010C948C010C948C010C
:100040000C940A140C948C010C94F5160C9427173C
:100050000C948C010C948C010C948C010C948C01EC
:100060000C948C010C948C01303B303B25643B306C
:100070003B25643B00636C6561720A0069643D2541
:10008000640A0066756C6C0A00706172656E743D7E
:1000900025642C20643D25640A00766572206D6914
:1000A000736D617463680A00726561643A20256447
:1000B0002D25642D256420733D25642C633D256426
:1000C0002C743D25642C70743D25642C6C3D256496
:1000D0002C73673D25643A25730A0073656E643A94
:1000E0002025642D25642D25642D256420733D2550
:1000F000642C633D25642C743D25642C70743D256F
:10010000642C6C3D25642C73673D25642C73743D11
:1001100025733A25730A0066696E64207061726502
:100120006E740A007265712069640A002573207379
:100130007461727465642C2069643D25642C2070A0
:100140006172656E743D25642C2064697374616E00
:1001500063653D25640A00726164696F20696E6998
:1001600074206661696C0A000102040810201112F3
:10017000131415160A0B0C0D0E0F000000080002D8
:10018000010000030407000000000000000001025D
:100190000408102040800102040810200102040815
:1001A00010200404040404040404020202020202F3
:1001B00003030303030300000000250028002B00B5
:1001C00000000000240027002A0000407A10F35AA3
:1001D00000A0724E18090010A5D4E80000E8764887
:1001E000170000E40B54020000CA9A3B000000E133
:1001F000F505000080969800000040420F000000C6
:10020000A08601000000102700000000E8030000A5
:1002100000006400000000000A000000000001006F
:10022000000000002C76D888DC674F0823DFC1DF90
:10023000AE59E1B1B796E5E3E453C63AE651997693
:1002400096E8E6C28426EB898C9B62ED407C6FFCCD
:10025000EFBC9C9F40F2BAA56FA5F490055A2AF70F
:100260005C936B6CF9676DC11BFCE0E40D47FEF518
:1002700020E6B500D0ED902E030094357705008080
:10028000841E080000204E0A000000C80C333333DF
:10029000330F986E12831141EF8D2114893BE6557F
:1002A00016CFFEE6DB18D1844B381BF77C1D901D62
:1002B000A4BBE424203284725E228100C9F124ECC4
:1002C000A1E53D273502571711241FBECFEFD8E017
:1002D000DEBFCDBF11E0A0E0B1E0E8EFF4E402C082
:1002E00005900D92A03AB107D9F722E0A0EAB1E05B
:1002F00001C01D92A93FB207E1F712E0C8ECD2E0BD
:1003000004C02297FE010E94AF1AC43CD107C9F76E
:100310000E9424180C947A220C9400000F9364E637
:1003200070E080E090E00E9483140FEF20E04CE04A
:1003300060E070E081EC91E00E942F0920E041E153
:1003400051E060E271E081EC91E00E94900800E0F1
:1003500023E531E04AE061E081EC91E00E946A0827
:100360000F910895EF920F931F93EE24E39403E30C
:1003700013E323E530E443E353E363EF7FE386E4F1
:1003800092E00E942A130E94071940E081EC91E05C
:100390001F910F91EF900C944D08AF92BF92CF92A6
:1003A000DF92EF92FF920F931F93CF93DF93809191
:1003B0004A0290914B02019690934B0280934A021D
:1003C0008EE00E940115EC01BC01882777FD809525
:1003D000982F1F921F921F9223E02F93A12CB12CD4
:1003E0006501E12C14E0F12E00E010E020E030E0A7
:1003F000A9010E94DA176B017C010F900F900F90FA
:100400000F9080910A0190910B018C159D0579F058
:10041000BE0180EA91E00E941A0640E0BC0181EC36
:1004200091E00E943D08D0920B01C0920A01809198
:100430004A0290914B020A9734F010924B021092AC
:100440004A020E94B20140E157E260E070E081ECB4
:1004500091E0DF91CF911F910F91FF90EF90DF908E
:10046000CF90BF90AF900C94800C0F931F93CF93BD
:10047000DF9340E050E060E87FE386E492E00E9492
:10048000F41282E090E00E9433188C010E948402F2
:1004900085E190E00E943318EC0123E04AE069E036
:1004A0000E94FF0DA801BE0181EC91E00E94270689
:1004B00047E061E080EA91E0DF91CF911F910F91D9
:1004C0000C94E0042FE231E0FC0131832083089595
:1004D00081E080934C02089582E080934C0208955D
:1004E0001F920F920FB60F9211248F9388E10FB6CF
:1004F000F89480936000109260000FBE8F910F906F
:100500000FBE0F901F901895CF93DF93EC010E94C0
:1005100062028BE391E099838883DF91CF91089504
:1005200020917A002F7720937A008A309105B1F0DC
:1005300083FF02C028E201C028E08770822B28E1F7
:1005400030E00FB6F894A895209360000FBE80931A
:1005500060008091600080648093600083B7817F39
:10056000846083BFF89483B7816083BF85B780665A
:1005700085BF8F7D85BF7894889583B78E7F83BF35
:10058000789480917A00806880937A000895CF9360
:10059000DF9300D000D0CDB7DEB788E592E0498385
:1005A0005A836B837C830E94121610924C024981FD
:1005B0005A816B817C8180914C0281112DC0403425
:1005C0008FE158076105710588F089E090E0498363
:1005D0005A836B837C830E94900249815A816B818C
:1005E0007C8140545F4161097109E5CF403AEFE0F9
:1005F0005E076105710580F088E090E049835A83C9
:100600006B837C830E94900249815A816B817C813B
:10061000405A5F406109710980914C02811116C0F6
:10062000403DF7E05F076105710580F087E090E0ED
:1006300049835A836B837C830E94900249815A814B
:100640006B817C81405D57406109710980914C024A
:10065000811116C0483E83E058076105710580F09E
:1006600086E090E049835A836B837C830E949002EA
:1006700049815A816B817C81485E534061097109CF
:1006800080914C02811116C0443FE1E05E07610594
:10069000710580F085E090E049835A836B837C8309
:1006A0000E94900249815A816B817C81445F514054
:1006B0006109710980914C02811115C04A3F5105B1
:1006C0006105710580F084E090E049835A836B8373
:1006D0007C830E94900249815A816B817C814A5FB0
:1006E00051096109710980914C02811115C04D3782
:1006F00051056105710580F083E090E049835A83DC
:100700006B837C830E94900249815A816B817C813A
:10071000485751096109710980914C02811115C036
:10072000403451056105710580F082E090E0498315
:100730005A836B837C830E94900249815A816B812A
:100740007C814C5351096109710980914C028111DE
:1007500015C0403251056105710580F081E090E0DF
:1007600049835A836B837C830E94900249815A811A
:100770006B817C814E5151096109710980914C0254
:1007800081110FC0403151056105710550F080E0C5
:1007900090E00F900F900F900F90DF91CF910C94FD
:1007A00090020F900F900F900F90DF91CF910895CE
:1007B0000C94C702BF92CF92DF92EF92FF920F93F9
:1007C0001F93CF93DF93EC01B62E6801790150E0BF
:1007D00068E672E08B2D0E948A13C114D104E104F3
:1007E000F10471F010924C02B701A601CE010E94F3
:1007F000C702C1E080914C0281110BC0C0E009C06A
:1008000088E592E00E9412168AE090E00E94900231
:10081000C1E08B2D0E94AA138C2FDF91CF911F91E5
:100820000F91FF90EF90DF90CF90BF900895BF920F
:10083000CF92DF92EF92FF920F931F93CF93DF93AC
:10084000EC01B62E122F50E068E672E08B2D0E946C
:100850008A13402F50E06CE672E0812F0E948A13C9
:10086000C114D104E104F10461F010924C02B7010B
:10087000A601CE010E94C70280914C02882359F044
:1008800008C088E592E00E9412168AE090E00E947B
:100890009002C1E001C0CFEF8B2D0E94AA13812FDF
:1008A0000E94AA1380914C02813011F4CB2D03C019
:1008B000823009F4C12F8C2FDF91CF911F910F91BE
:1008C000FF90EF90DF90CF90BF900895FF920F932D
:1008D0001F93CF93DF93CDB7DEB7CE52D1400FB683
:1008E000F894DEBF0FBECDBFC85CDE4FF880C853A2
:1008F000D140C75CDE4F48815981C953D1408E0138
:100900000F5F1F4FFF2081F11F9289E08F931F928D
:1009100083E08F9388E690E09F938F9381E08F939D
:100920008BE28F931F930F93C35DDE4F4883CD52AD
:10093000D140C25DDE4F5883CE52D1400E94DF1CB1
:10094000B80188E592E00E94D8170FB6F894DEBF90
:100950000FBECDBFC25DDE4F5881CE52D140C35DC8
:10096000DE4F4881CD52D1409E01255C3E4FFF2095
:1009700049F06CE370E0C8010E940F1D8AE08CAF63
:100980001DAE05C06BE271E0C8010E940F1DB801E9
:1009900088E592E00E94D81788E592E00E9412163E
:1009A000C25DDE4F0FB6F894DEBF0FBECDBFDF9144
:1009B000CF911F910F91FF900895FC01128208952D
:1009C000FC011282668345830895FC0124812295EF
:1009D0002695277011F40796089580E090E0089519
:1009E0006F706A3010F480E301C087E3860F0895CA
:1009F0009F92AF92BF92CF92DF92EF92FF920F93AE
:100A00001F93CF93DF93EC018B01912C892D90E004
:100A1000EB81E695E695E695F0E08E179F0734F5B5
:100A20007C01EE0CFF1C5801AE0CBF1C6E01C80E01
:100A3000D91EF6016781772767FD709534E07595BB
:100A400067953A95E1F7CE010E94F004F5018083A5
:100A5000FFEFEF1AFF0AE00EF11EF6016781CE01EB
:100A60000E94F004F70180839394D0CFEE0FFF1F14
:100A7000E00FF11F1082C801DF91CF911F910F91FC
:100A8000FF90EF90DF90CF90BF90AF909F90089530
:100A9000EF92FF920F931F93CF93DF937C01EB01B3
:100AA000FC018481829586958770209709F460C047
:100AB000811115C0438146954695469550E0B70192
:100AC000695F7F4FCE010E945D1CF701838186958F
:100AD00086958695FE01E80FF11D10824CC081308D
:100AE00029F4F70187814AE090E006C0823039F4AA
:100AF0004AE0F701878190850E946C1C3CC08330DE
:100B000039F44AE0F701878190850E94C51C33C003
:100B1000843051F4F70167817085818592852AE0E0
:100B2000AE010E94771C27C0853051F4F701678120
:100B30007085818592852AE0AE010E94A31C1BC0AE
:100B4000873059F4F70167817085818592858E0120
:100B5000238542E00E94C21A0EC0863061F4C701AC
:100B6000DF91CF911F910F91FF90EF900C94F804BB
:100B700080E090E001C0CE01DF91CF911F910F91F5
:100B8000FF90EF900895FC0124812295269527700F
:100B9000213011F487810895211104C007960E9425
:100BA0000F1C089580E00895FC012481229526956C
:100BB0002770253029F46781708581859285089595
:100BC000211103C007960C942D1C60E070E0CB014E
:100BD0000895CF93DF93EC01FB0101900020E9F72A
:100BE0003197E61BF70BE931F10508F0E9E14E2FEB
:100BF00050E0CA01E3E0880F991FEA95E1F79B8175
:100C00009770982B9B838C818F718C83CE01079674
:100C10000E945D1CCE01DF91CF910895FC0183817C
:100C200087708860838384818F7180628483678307
:100C3000CF010895FC0184818F7180648483838156
:100C400087708061838370876783CF010895EF92F7
:100C5000FF920F931F93CF93DF93EC017B018A01E7
:100C600007960E94DD04CE0188960E94DD04FE01F5
:100C7000E75BFF4FF182E082C55BDF4F198308839A
:100C8000DF91CF911F910F91FF90EF900895AF9258
:100C9000BF92CF92DF92EF92FF920F931F93CF9369
:100CA000DF938C01B62EEA012B812C7F22602B83EF
:100CB00022FD04C026952695269501C020E2D80184
:100CC0008C918883F801E75BFF4F80819181DC0183
:100CD000ED91FC910680F781E02D422F50E04A31E2
:100CE000510514F4295F01C020E2AE016B2D099576
:100CF000A82E7801BBE4EB0EF11CD701ED91FC911D
:100D00000190F081E02DC680D780B801635B7F4FF2
:100D1000CE010E944805BFEFBB1629F0AA2031F092
:100D20002BE431E005C028E431E002C023E431E0E7
:100D30005B814C81F701608171819F938F933F9319
:100D40002F9352FB882780F91F928F9356955695C3
:100D500056951F925F93842F8295869587701F9278
:100D60008F938D811F928F9347701F924F938E8127
:100D70001F928F938A811F928F931F92BF928881B7
:100D80001F928F9389811F928F932BED30E03F93B9
:100D90002F93D80116968C918F937F936F93F601C2
:100DA00009958DB79EB74D960FB6F8949EBF0FBEAE
:100DB0008DBF8A2DDF91CF911F910F91FF90EF9002
:100DC000DF90CF90BF90AF9008958F929F92AF9297
:100DD000BF92CF92DF92EF92FF92CF93DF93EC011D
:100DE0006A017B010E9454144B015C010E9454145F
:100DF000681979098A099B096C157D058E059F057F
:100E000020F4CE010E94FA09F1CFDF91CF91FF903B
:100E1000EF90DF90CF90BF90AF909F908F9008950C
:100E20000F931F93CF93DF93EC01FC01E55BFF4F22
:100E30000190F081E02DA081B18184E291E09F9347
:100E40008F938E818F93FF93EF931696ED91FC9184
:100E500017970995FE01E75BFF4F80819181DC01C7
:100E6000ED91FC910280F381E02D688109958E015E
:100E7000095F1F4F8881888719868FEF8D8783E0F0
:100E80008C878B85807E83608B8763E571E0C801EA
:100E90000E94E905A8016981CE010E9447060F90D2
:100EA0000F900F900F900F9040ED57E060E070E0D2
:100EB000CE01DF91CF911F910F910C94E506FF9227
:100EC0000F931F93CF93DF93EC0180914D0281111B
:100ED00042C081E080934D02FE01E058FF4F108236
:100EE000FF24FA94FA82F5970190F081E02DA08119
:100EF000B18187E191E09F938F938E818F93FF93D0
:100F0000EF931696ED91FC91179709958E01095F65
:100F10001F4F88818887F986FD8687E08C878B85BF
:100F2000807E83608B8763E571E0C8010E94E905DC
:100F3000A8016FEFCE010E94470640ED57E060E048
:100F400070E0CE010E94E50610924D020F900F90C6
:100F50000F900F900F90DF91CF911F910F91FF9005
:100F60000895CF92DF92FF920F931F93CF93DF9359
:100F700000D0CDB7DEB76C01AB01FB01118102815E
:100F8000F080FC0181818F3F21F4C6010E945F0740
:100F90004BC0F60180818F3F21F4C6010E941007EB
:100FA00043C0FB0193819C7F92609383F60184810F
:100FB000002319F0811114C00CC0882351F0812F37
:100FC00090E06F2D039649835A830E94251F5A8112
:100FD0004981F6016181C6010E944706082F32C08F
:100FE000802F90E0039669835A830E941D1F9FEF14
:100FF000980F49815A819E3F10F4682F05C0111146
:101000000FC00F3F69F46FEFC6010F900F90DF9193
:10101000CF911F910F91FF90DF90CF900C944706D6
:10102000F6018681882311F080E01DC0F601618100
:10103000C6010E944706082F812F90E06F2D03966E
:101040000E94251FF601E058FF4F01110AC0808160
:101050008F5F8083F6019581992331F3863020F3E9
:1010600094CF108281E00F900F90DF91CF911F916C
:101070000F91FF90DF90CF900895FC012081FB013C
:1010800021832481207F2160F8E04F9FA00111245B
:10109000242BFB0124830C94B107CF93DF93EC0145
:1010A0008881888719868FEF8D871C868B85807F46
:1010B000836098E0499FA0011124842B8F7E8B8749
:1010C000CE0107960E940E06BC01CE01DF91CF91A2
:1010D0000C94B1070F931F93CF93DF93EC016F3FF5
:1010E00019F48EE491E001C0C9012881288719868E
:1010F0006D874C8728E0029F800111242B85207F7B
:10110000202B2F7E2B87BC01CE0107960E94E9057C
:10111000BC01CE01DF91CF911F910F910C94B107CB
:10112000EF92FF920F931F93CF93DF931F92CDB750
:10113000DEB77C018A0161157105E9F0FC0180814F
:10114000808711868FEF85878BE084873385307F9A
:101150003360F8E02F9FC0011124382B3F7EF70148
:101160003387C701079629830E94E905BC01C7019F
:101170000E94B10729810115110519F1F70180813C
:10118000808711868FEF85878CE084878385807FB9
:101190008360F8E02F9F90011124822B8F7EF7014E
:1011A0008387B801C70107960E94E905BC01C70102
:1011B0000F90DF91CF911F910F91FF90EF900C94C2
:1011C000B1070F90DF91CF911F910F91FF90EF909A
:1011D00008950F93CF93DF93EC01FC01E75BFF4F82
:1011E00080819181DC01ED91FC910280F381E02D01
:1011F000688109958E8181112EC088818F3F59F1B8
:101200008C81882311F042E101C041E100E023E537
:1012100031E06FEFCE010E946A086981888188877A
:1012200019868FEF8D8786E08C878B85807E836023
:101230008B87CE0107960E940E06BC01CE010E944C
:10124000B10740ED57E060E070E0CE01DF91CF9153
:101250000F910C94E506DF91CF910F910895DF92E5
:10126000EF92FF920F931F93CF93DF93EC017B01DB
:10127000142FD22E26E040E052EC61E070E088E5C9
:1012800092E00E949916DC82FE01ED57FF4FF18239
:10129000E0823397108281E0111180E08E83FE019D
:1012A000E75BFF4F80819181DC01ED91FC91019022
:1012B000F081E02D0995FE01E55BFF4F7F012E8156
:1012C000811117C00190F081E02DA081B18187E5E7
:1012D00091E09F938F932F93FF93EF931696ED9149
:1012E000FC91179709950F900F900F900F900F900A
:1012F000FFCF222321F019821A82188239C043E0DD
:1013000050E060E070E0CE010E940D1F41E050E02F
:1013100063E071E0CE0103960E940D1F8B818F3F29
:1013200011F481E08B8381E00F3F09F080E08D8331
:10133000811109C00983602F81E090E00E94251F80
:1013400081E08A8306C089818F3F19F4CE010E9413
:101350005F071F3F39F01883612F80E090E00E9403
:10136000251F06C088818F3F19F489818F3FF1F5D1
:10137000CE010E94E908F701A081B181ED91FC91B5
:1013800011970680F781E02D5A81498138812E819D
:10139000211106C08C81882331F083E691E005C0DD
:1013A00084E591E002C08CE591E01F925F931F926B
:1013B0004F931F923F939F938F938CE291E09F9363
:1013C0008F932F93BF93AF9309952DB73EB7235FAC
:1013D0003F4F0FB6F8943EBF0FBE2DBFDF91CF91A8
:1013E0001F910F91FF90EF90DF900895CE010E9422
:1013F0001007BECFAF92BF92CF92DF92EF92FF92D3
:101400000F931F93CF93DF9300D01F92CDB7DEB71A
:101410008C01A89519827C0129E4E20EF11CD70108
:101420008D919C91DC01ED91FC910084F185E02D82
:10143000BE016F5F7F4F0995882309F4FEC1F70154
:10144000808191817801F7E0EF0EF11CDC01ED91D4
:10145000FC910284F385E02DB7010995F80182859E
:10146000869586958695E80FF11D16866801FBE442
:10147000CF0ED11CD601ED91FC910190F081E02DB1
:10148000A680B780B801635B7F4FC7010E94480503
:10149000F80132852385D6014C9111965C919F937A
:1014A0008F9332FB882780F91F928F93369536955C
:1014B00036951F923F93822F8295869587701F9253
:1014C0008F9384851F928F9327701F922F9385850A
:1014D0001F928F9381851F928F9387811F928F9385
:1014E00080851F928F9388EA90E09F938F938681E7
:1014F0008F935F934F93F5010995D8011A968C91BC
:101500001A97982F9B7F1A969C9383700FB6F89426
:10151000DEBF0FBECDBF8230D9F0D601ED91FC9178
:10152000208131818AE990E09F938F93D8011696AC
:101530008C918F93FF93EF93D9011696ED91FC91C7
:10154000179709950F900F900F900F900F9075C1FE
:10155000F801338537702485B084678180814185A7
:101560009481481316C1992361F08181681749F06D
:101570008B2D90E003962B833A830E94251F3A819E
:101580002B81D8011B968C911B9783FF1BC081E296
:10159000F8013796989601900D928A95E1F7F80137
:1015A00084A5877F806184A7808181A7808582A7A9
:1015B000B801685D7F4FC8012B833A830E94B10751
:1015C0003A812B81333009F0D8C0283009F044C06B
:1015D000D80115968C91882309F42FC1C7010E9468
:1015E000C3058F3F09F429C18F5F8F3F09F425C1DF
:1015F000F8019281891708F020C1F8018283608583
:10160000618381E090E00E94251FD80112966C91C1
:1016100082E090E00E94251FD601ED91FC9120818F
:101620003181D80112968C9112971F928F93119647
:101630008C9111971F928F9389E890E09F938F93DD
:1016400016968C918F93FF93EF93D9011696ED9197
:10165000FC9117970995ECC0B1108FC02D3061F443
:1016600028E088E190E00FB6F894A8958093600098
:101670000FBE20936000FFCF243009F049C0D8018D
:101680008C918F3F09F0D9C0C7010E94C305F801B2
:1016900080838F3FD9F4D601ED91FC912081318177
:1016A00083E890E09F938F93D80116968C918F9347
:1016B000FF93EF93D9011696ED91FC911797099539
:1016C0000F900F900F900F900F90FFCFC8010E94C6
:1016D000E908F801608180E090E00E94251FD601B2
:1016E000ED91FC9120813181D8018C911F928F93D3
:1016F0008CE790E09F938F9316968C918F93FF9336
:10170000EF93D9011696ED91FC911797099590C02A
:10171000263081F4C7010E94E50461E0DC018C9170
:101720008D3409F060E0F801638383E091E00E946A
:10173000251F83C02A3079F4D80114968C91882310
:1017400009F47BC0C7010E94E504FC018081833459
:1017500009F073C074C0213009F06FC0F801EF5771
:10176000FF4F008111810115110509F466C0C70101
:101770000E94D405F801099560C0F801ED57FF4FAC
:101780000190F081E02D309709F450C0C701099510
:101790004DC0992309F451C08F3F09F44EC0333036
:1017A000E9F52730D9F58181B81609F446C0828160
:1017B0008F3F19F4C8010E945F07F80182818F3FB3
:1017C000E1F10E945414AB01BC01537066277727E6
:1017D000C8010E94E506D80112966C9112978C916F
:1017E00018968C9318971996BC9219978FEF1D969F
:1017F0008C931D9788E01C968C931C971B968C915C
:101800001B97807E83601B968C93C7010E940E06F7
:10181000AC016B2DC8010E9447060FC09981981337
:101820000CC0B701C8010E94B10707C081E05AC0CF
:101830000FB6F894DEBF0FBECDBF80E053C0D60117
:10184000ED91FC912081318185E790E09F938F930A
:10185000D80116968C918F93FF93EF93D90116962A
:10186000ED91FC91179709950F900F900F900F90A5
:101870000F90DD24DA948D2D90E06FEF03960E9497
:10188000251F8FEF8D0DDD2011F0D82EF4CF6FEFD7
:1018900081E090E00E94251F6FEF82E090E00E94BF
:1018A000251FC8010E945F07D8018C9118968C9360
:1018B000189719961C9219978FEF1D968C931D9768
:1018C0008AE01C968C931C971B968C911B97807EAC
:1018D00083601B968C9363E571E0C7010E94E90564
:1018E000BC01A0CF0F900F900F90DF91CF911F916F
:1018F0000F91FF90EF90DF90CF90BF90AF90089541
:101900000F931F93CF93DF9300D000D0CDB7DEB7F6
:101910008C01FC01E75BFF4F80819181DC01ED913F
:10192000FC910484F585E02D49835A836B837C8385
:101930000995F801E55BFF4F80819181DC01ED9114
:10194000FC910190F081E02D49815A816B817C816D
:101950000F900F900F900F90DF91CF911F910F91EB
:10196000099420E731E0FC01318320830895FC01D4
:1019700083890895DF92EF92FF920F931F93CF9385
:10198000DF938C01EC012296CE010E945E12CE0103
:101990000E94B911D82E8823A9F161E0CE010E94DE
:1019A000BC1140E062E0CE010E94C411CE010E9451
:1019B0009B116CE4CE010E94710FF8016489CE0185
:1019C0000E94F91162E070E0CE010E9412124FE015
:1019D00065E0CE010E94B51262E070E0CE010E9487
:1019E0004212CE010E947D11EE24EA948CEFF82E73
:1019F00001EE18EA28EA30E040E050E062E0CE0173
:101A00000E94B9108D2DDF91CF911F910F91FF9002
:101A1000EF90DF9008954F925F927F928F929F9206
:101A2000AF92BF92CF92DF92EF92FF920F931F93EC
:101A3000CF93DF931F92CDB7DEB7FC01262F638BC8
:101A400030E040E050E060E070E080E090E0345052
:101A50004E41574567457F4F8F4F9F4F922EA32E84
:101A6000B42EC52ED62E782E892E2F0182E0480E58
:101A7000511CE92CFA2C0B2D1C2D2D2D372F472D09
:101A8000582D60E0C20179830E94B9102D2D798113
:101A9000372F472D582D61E0C2010E94B910C201B5
:101AA0000F90DF91CF911F910F91FF90EF90DF90FA
:101AB000CF90BF90AF909F908F907F905F904F900E
:101AC0000C943811CF92DF92EF92FF920F931F93F5
:101AD000CF93DF93D62E7A01C22EEC012296CE014F
:101AE0000E94B90FCE010E94780F2D2D30E040E00A
:101AF00050E060E070E080E090E034504E415745A7
:101B000067457F4F8F4F9F4F89019A01AB01BC0101
:101B1000CE010E947E1021E08FEFD81220E04C2DE4
:101B2000B701CE010E94E70FF82ECE010E943811B6
:101B30008F2DDF91CF911F910F91FF90EF90DF904C
:101B4000CF900895BF92CF92DF92EF92FF920F93C2
:101B50001F93CF93DF931F92CDB7DEB77C018B012C
:101B6000BB24BA94B9826C0182E0C80ED11CBE01BC
:101B70006F5F7F4FC6010E9429108981813029F44F
:101B8000F7018389F801808304C0823011F4F801E1
:101B9000B082C6010E946E10882321F081E09981F5
:101BA000963008F080E00F90DF91CF911F910F9158
:101BB000FF90EF90DF90CF90BF900895EF92FF924B
:101BC0001F93CF93DF9300D0CDB7DEB702967C0191
:101BD00069837A830E940510182F482F69817A81C2
:101BE000C7010E947210812F0F900F90DF91CF914B
:101BF0001F91FF90EF90089502960C94A70F0F93FA
:101C00001F93CF93DF9300D01F92CDB7DEB78C0127
:101C10002B834A8369830E94B10CE2E8F1E0D8018A
:101C2000ED93FD93CD014A8169810E94670F2B815D
:101C3000F801248B0F900F900F90DF91CF911F919F
:101C40000F9108958EBD00000DB407FEFDCF8EB537
:101C500008952CB52F7D2CBD2CB5237F2CBD2CB524
:101C60002C7F2CBD2DB521602DBDFC0181810C94F4
:101C70008015FC018081918189130C948015089551
:101C80001F93CF93DF93EC01162F60E00E94290E83
:101C9000812F8F710E94220E8FEF0E94220E182F2B
:101CA00061E0CE010E94290E812FDF91CF911F911B
:101CB0000895CF92DF92EF92FF920F931F93CF93ED
:101CC000DF9300D0CDB7DEB78C01E62EF22E60E0B8
:101CD00049835A830E94290E8E2D8F7180620E9443
:101CE000220EE82E4981C42E5A81D52EF40EFC1402
:101CF00031F0F60181916F010E94220EF8CF61E070
:101D0000C8010E94290E8E2D0F900F90DF91CF9168
:101D10001F910F91FF90EF90DF90CF900895EF9279
:101D2000FF921F93CF93DF931F92CDB7DEB77C0155
:101D3000162F60E049830E94290E812F8F718062E7
:101D40000E94220E182F4981842F0E94220E61E0EA
:101D5000C7010E94290E812F0F90DF91CF911F9113
:101D6000FF90EF900895AF92BF92CF92DF92EF92E3
:101D7000FF920F931F93CF93DF9300D0CDB7DEB7C1
:101D80008C01D62EFC01E380F42EE41608F4FE2C20
:101D9000F8018481811102C0EF1801C0E12C60E0DC
:101DA000C80129837A830E94290E2981822F0E94EB
:101DB000220EC82EAD2C7A81B72EFD0CFA1431F00C
:101DC000F50181915F010E94220EF8CFEE2029F0EB
:101DD00080E00E94220EEA94F9CF61E0C8010E94DF
:101DE000290E8C2D0F900F90DF91CF911F910F91A5
:101DF000FF90EF90DF90CF90BF90AF900895AF929B
:101E0000BF92CF92DF92EF92FF920F931F93CF93E7
:101E1000DF931F92CDB7DEB78C01D62EFC01E38095
:101E2000F42EE41608F4FE2CF8018481811102C01E
:101E3000EF1801C0E12C60E0C80179830E94290EEF
:101E400081E60E94220EC82EAD2C7981B72EFD0CA2
:101E5000FA1439F08FEF0E94220EF50181935F0191
:101E6000F7CFEE2029F08FEF0E94220EEA94F9CFEF
:101E700061E0C8010E94290E8C2D0F90DF91CF9157
:101E80001F910F91FF90EF90DF90CF90BF90AF9098
:101E900008951F93CF93DF93EC01162F60E00E940B
:101EA000290E812F0E94220E182F61E0CE010E9480
:101EB000290E812FDF91CF911F91089562EE0C942E
:101EC000490F61EE0C94490F6FEF0C94490FFC0120
:101ED00060834183128280E28383148285E082875B
:101EE0000895462F603808F04FE765E00C948F0E98
:101EF000CF93DF93EC0160E00E94390E82E890E01E
:101F00000E94BD146DE1CE010E94400E81FF03C00E
:101F1000CE010E94610F60E0CE010E94400E482F6A
:101F20004E7F60E0CE010E948F0E62E0CE010E94E3
:101F3000400EE8E6F1E04491482B62E0CE010E94B9
:101F40008F0E84E690E0DF91CF910C94BD14CF9377
:101F5000DF93EC0160E00E94390E60E0CE010E9448
:101F6000400E482F4D7F60E0CE01DF91CF910C9461
:101F70008F0ECF93DF93EC0160E00E94400E81FD55
:101F800012C060E0CE010E94400E482F426060E027
:101F9000CE010E948F0E65E070E080E090E0DF915E
:101FA000CF910C948314DF91CF910895CF93DF9359
:101FB000EC01222311F020EB01C020EACE010E94A7
:101FC000B30E61E0CE01DF91CF910C94390ECF9327
:101FD000DF93EC010E94D60FCE010E94640F807344
:101FE000D9F360E0CE010E94390E40E767E0CE01F0
:101FF0000E948F0E84FF05C0CE010E94610F80E019
:1020000001C081E0DF91CF9108951F93CF93DF93BB
:10201000EC0160E00E94290E80E60E94220E8FEF04
:102020000E94220E182F61E0CE010E94290E11326B
:1020300058F0CE010E945E0F62E070E080E090E018
:102040000E94831480E001C0812FDF91CF911F9106
:102050000895CF92DF92EF92FF920F931F93CF9349
:10206000DF93EC018B018F858823C9F00E946014F7
:10207000CB84DC84ED84FE846C197D098E099F0974
:10208000603273408105910518F48F858111EECF80
:102090000E9460146B877C878D879E871F8667E10F
:1020A000CE010E94400E80FD0DC00115110561F0AA
:1020B000CE010E94640F90E0959587958770F80196
:1020C000808302C080E001C081E0DF91CF911F9149
:1020D0000F91FF90EF90DF90CF90089560E070E057
:1020E0000C942910CF93DF93EC010E94FF0E40E780
:1020F00067E0CE01DF91CF910C948F0EEF92FF92AB
:102100000F931F93CF93DF93CDB7DEB728970FB60A
:10211000F894DEBF0FBECDBF7C0109831A832B83E9
:102120003C834D835E836F837887FC012285AE01FB
:102130004F5F5F4F6AE00E94590EF7012285AE01A2
:102140004F5F5F4F60E1C7010E94590EF701438165
:1021500061E1C7010E948F0E28960FB6F894DEBF8A
:102160000FBECDBFDF91CF911F910F91FF90EF90E8
:102170000895BF92CF92DF92EF92FF920F931F9339
:10218000CF93DF93CDB7DEB728970FB6F894DEBFB5
:102190000FBECDBF6C01B62EE982FA820B831C8381
:1021A0002D833E834F83588761110AC0FC0142850D
:1021B00050E0BE016F5F7F4F05960E94541C06C021
:1021C000F6E0F61778F181E0681308C0EB2DF0E037
:1021D000EC58FE4F6491F601228506C0E62FF0E030
:1021E000EC58FE4F649121E0AE014F5F5F4FC60196
:1021F0000E94590E0B2D10E0F801E259FE4F649138
:10220000F6014381C6010E948F0E62E0C6010E9462
:10221000400EF801E859FE4F4491482B62E0C60198
:102220000E948F0E28960FB6F894DEBF0FBECDBF6A
:10223000DF91CF911F910F91FF90EF90DF90CF90A2
:10224000BF9008951F93CF93DF93EC01162F62E0A8
:102250000E94400EE12FF0E0E859FE4F4491409576
:10226000482362E0CE01DF91CF911F910C948F0E35
:10227000CF93DF93EC010E94B90F60E0CE010E9482
:10228000400E482F416060E0CE010E948F0E40E773
:1022900067E0CE010E948F0E8D81882349F02A8548
:1022A000AE014B5F5F4F6AE0CE010E94590E04C041
:1022B00060E0CE010E9422116DE1CE010E94400E2D
:1022C00081FF03C0CE010E94610F61E0CE01DF916A
:1022D000CF910C94390ECF93DF93EC0160E00E9414
:1022E000290E80E50E94220E83E70E94220E61E003
:1022F000CE01DF91CF910C94290ECF93DF93EC01A7
:102300000E946B116DE1CE010E94400E482F446087
:102310006DE1CE010E948F0E6CE1CE010E94400E55
:10232000482F4F636CE1CE010E948F0E81E08C83B9
:10233000DF91CF910895CF93DF93EC010E946B1151
:102340006DE1CE010E94400E482F46606DE1CE0146
:102350000E948F0E6CE1CE010E94400E482F436018
:102360006CE1CE010E948F0E81E08C83DF91CF91D2
:102370000895FC0182810895662311F04FE301C0A6
:1023800040E061E00C948F0EEF92FF921F93CF9389
:10239000DF931F92CDB7DEB77C01162F673010F5A3
:1023A00061E049830E94400E4981442349F041E0A5
:1023B00050E0012E01C0440F0A94EAF7482B08C0F0
:1023C00041E050E001C0440F1A95EAF740954823D8
:1023D00061E0C7010F90DF91CF911F91FF90EF90C7
:1023E0000C948F0E0F90DF91CF911F91FF90EF9083
:1023F00008951F93CF93DF93EC01162F66E00E94A0
:10240000400E887F143020F4612F660F6F5F01C08B
:1024100067E0462F482B66E0CE01DF91CF911F91F8
:102420000C948F0EEF92FF920F931F93CF93DF9335
:102430001F92CDB7DEB77C018B0166E00E94400E93
:10244000282F277D0230110511F4206204C00130CD
:10245000110509F42860422F66E0C70129830E9414
:102460008F0E66E0C7010E94400E91E02981821321
:1024700090E0892F0F90DF91CF911F910F91FF90E6
:10248000EF9008950F931F93CF93DF93EC018B018F
:1024900060E00E94400E482F437F0115110531F086
:1024A0000130110511F4486001C04C6060E0CE01BC
:1024B000DF91CF911F910F910C948F0ECF93DF93EB
:1024C000EC0188819981891719F061E00E94471514
:1024D00089819881981719F061E00E9447150E9440
:1024E000BE1260E0CE010E94390E61E0CE010E9472
:1024F000290E65E070E080E090E00E9483144FE5D3
:1025000064E0CE010E948F0E62E070E0CE010E9476
:102510001212882311F081E08A8360E070E0CE011E
:102520000E94121262E070E0CE010E94421240E767
:1025300067E0CE010E948F0E6CE4CE010E94710F05
:10254000CE010E945E0FCE010E94610FCE010E945B
:10255000B90F60E0CE010E94400E482F4E7F60E030
:10256000CE01DF91CF910C948F0E20E1629FB001DC
:1025700011244F70462B64E00C948F0ECF93CFB78D
:10258000F89480914E02811127C0ECEAF1E0849129
:10259000E8E9F1E09491E82FF0E0EE0FFF1FE0543E
:1025A000FE4FA591B4918C91892321F461E08AE0DA
:1025B0000E94801561E08AE00E9447158CB5806119
:1025C0008CBD8CB580648CBD61E08DE00E944715A8
:1025D00061E08BE00E94471580914E028F5F8093EF
:1025E0004E02CFBFCF910895FC0140835183628397
:1025F00073830895CF93DF93EC0180917C008E3438
:1026000039F08EE480937C008EE591E00E94BD1449
:1026100080917A00806480937A0080917A0086FDB0
:10262000FCCF609178007091790080E090E00E948A
:1026300038199B01AC016AE979EA8CE894E40E94BC
:102640009F18288139814A815B810E94EE19DF91B0
:10265000CF9108954F925F926F927F928F929F9247
:10266000AF92BF92CF92DF92EF92FF920F931F93A0
:10267000CF934A015B0128013901CE2D0E94FA1245
:10268000A50194010E94361820E030E048EC52E4A5
:102690000E94EE196B017C01A5019401C301B201F6
:1026A0000E9436189B01AC01C701B6010E949F1819
:1026B0006B017C01CC23D9F020E030E0A9010E941D
:1026C0009B1887FD11C020E030E048EC52E4C701C0
:1026D000B6010E94EA19181654F4C12CD12C88ECCA
:1026E000E82E82E4F82E03C0C12CD12C7601C7015C
:1026F000B601CF911F910F91FF90EF90DF90CF9097
:10270000BF90AF909F908F907F906F905F904F9011
:10271000089508958230E8F4E82FF0E0EE0FFF1FEF
:10272000E45FFE4F71836083813041F080916900E6
:102730008C7F842B80936900E89A089580916900CA
:10274000440F551F440F551F837F842B80936900CE
:10275000E99A0895823078F4813011F0E89801C048
:10276000E998E82FF0E0EE0FFF1FE45FFE4F89E8E5
:1027700093E19183808308951F920F920FB60F9279
:1027800011242F933F934F935F936F937F938F9376
:102790009F93AF93BF93EF93FF93E0910C01F09160
:1027A0000D010995FF91EF91BF91AF919F918F918D
:1027B0007F916F915F914F913F912F910F900FBE3D
:1027C0000F901F9018951F920F920FB60F92112421
:1027D0002F933F934F935F936F937F938F939F9329
:1027E000AF93BF93EF93FF93E0910E01F0910F0130
:1027F0000995FF91EF91BF91AF919F918F917F913B
:102800006F915F914F913F912F910F900FBE0F905D
:102810001F9018951F920F920FB60F9211242F93AD
:102820003F938F939F93AF93BF938091500290916A
:102830005102A0915202B091530230914F0226E012
:10284000230F2D3720F40296A11DB11D05C029E8E4
:10285000230F0396A11DB11D20934F0280935002B8
:1028600090935102A0935202B0935302809154026C
:1028700090915502A0915602B09157020196A11D68
:10288000B11D8093540290935502A0935602B093C9
:102890005702BF91AF919F918F913F912F910F90D0
:1028A0000FBE0F901F9018952FB7F89460915002AB
:1028B0007091510280915202909153022FBF08955E
:1028C0003FB7F8948091540290915502A09156021E
:1028D000B091570226B5A89B05C02F3F19F001966D
:1028E000A11DB11D3FBF6627782F892F9A2F620F38
:1028F000711D811D911D43E0660F771F881F991F71
:102900004A95D1F708958F929F92AF92BF92CF923E
:10291000DF92EF92FF926B017C010E9460144B01E9
:102920005C01C114D104E104F104F1F00E943518F6
:102930000E946014681979098A099B09683E7340EE
:102940008105910570F321E0C21AD108E108F10870
:1029500088EE880E83E0981EA11CB11CC114D1041E
:10296000E104F10429F7DDCFFF90EF90DF90CF90E5
:10297000BF90AF909F908F9008958330910528F07D
:10298000880F991F04970197F1F70895789484B5FB
:10299000826084BD84B5816084BD85B5826085BD5B
:1029A00085B5816085BDEEE6F0E080818160808341
:1029B000E1E8F0E010828081826080838081816024
:1029C0008083E0E8F0E0808181608083E1EBF0E0EB
:1029D000808184608083E0EBF0E08081816080838F
:1029E000EAE7F0E080818460808380818260808378
:1029F00080818E7F80838081806880831092C10077
:102A000008958E3008F08E5087702091100190E468
:102A1000299F90011124822B80937C0080917A0061
:102A2000806480937A0080917A0086FDFCCF80914B
:102A300078002091790090E0922B0895833081F006
:102A400028F4813099F08230A1F008958730A9F000
:102A50008830B9F08430D1F4809180008F7D03C03C
:102A6000809180008F7780938000089584B58F7760
:102A700002C084B58F7D84BD08958091B0008F77AA
:102A800003C08091B0008F7D8093B0000895CF93F4
:102A9000DF9390E0FC01E257FE4F2491FC01EE55DC
:102AA000FE4F8491882349F190E0880F991FFC0123
:102AB000E054FE4FA591B4918A549E4FFC01C591FC
:102AC000D4919FB7611108C0F8948C91209582230E
:102AD0008C93888182230AC0623051F4F8948C91DF
:102AE000322F309583238C938881822B888304C076
:102AF000F8948C91822B8C939FBFDF91CF91089596
:102B00000F931F93CF93DF931F92CDB7DEB7282F7C
:102B100030E0F901E658FE4F8491F901E257FE4F8B
:102B20001491F901EE55FE4F04910023C9F088235A
:102B300021F069830E941E156981E02FF0E0EE0FFD
:102B4000FF1FEA54FE4FA591B4919FB7F8948C9162
:102B5000611103C01095812301C0812B8C939FBF0D
:102B60000F90DF91CF911F910F910895FC01818DFE
:102B7000228D90E0805C9F4F821B91098F73992773
:102B80000895FC01918D828D981731F0828DE80FA8
:102B9000F11D858D90E008958FEF9FEF0895FC0162
:102BA000918D828D981761F0828DDF01A80FB11D84
:102BB0005D968C91928D9F5F9F73928F90E00895A8
:102BC0008FEF9FEF08958DE497E1892B49F080E026
:102BD00090E0892B29F00E944D1781110C94000080
:102BE0000895FC01848DDF01A80FB11DA35ABF4FCA
:102BF0002C91848D90E001968F739927848FA689FC
:102C0000B7892C93A089B1898C9180648C93938D22
:102C1000848D981306C00288F389E02D80818F7D12
:102C200080830895CF93DF93EC01888D8823C9F0CA
:102C3000EA89FB89808185FD05C0A889B9898C91C5
:102C400086FD0FC00FB607FCF5CF808185FFF2CF60
:102C5000A889B9898C9185FFEDCFCE010E94F1152D
:102C6000E7CFDF91CF910895CF92DF92FF920F933C
:102C70001F93CF93DF931F92CDB7DEB76C0181E036
:102C8000D60158968C9358975B969C915B975C966F
:102C90008C915C97981307C05096ED91FC915197D9
:102CA000808185FD2EC0F601038D10E00F5F1F4F60
:102CB0000F731127F02EF601848DF81211C00FB694
:102CC00007FCF9CFD6015096ED91FC915197808188
:102CD00085FFF1CFC60169830E94F1156981EBCFB1
:102CE000838DE80FF11DE35AFF4F6083D6015B9699
:102CF0000C935B975296ED91FC9153978081806283
:102D00000CC0D6015696ED91FC9157976083509672
:102D1000ED91FC91519780818064808381E090E007
:102D20000F90DF91CF911F910F91FF90DF90CF9087
:102D30000895BF92CF92DF92EF92FF92CF93DF93ED
:102D4000EC016A017B01B22E60E874E88EE190E04C
:102D5000A70196010E94611A2150310941095109C8
:102D60005695479537952795E889F98982E08083BC
:102D7000211580E1380798F0E889F989108260E42C
:102D800072E48FE090E0A70196010E94611A215041
:102D90003109410951095695479537952795EC8595
:102DA000FD853083EE85FF852083188EEC89FD89B3
:102DB000B082EA89FB89808180618083EA89FB890E
:102DC000808188608083EA89FB8980818068808334
:102DD000EA89FB8980818F7D8083DF91CF91FF908D
:102DE000EF90DF90CF90BF9008951F920F920FB693
:102DF0000F9211242F938F939F93EF93FF93E09162
:102E00006802F09169028081E0916E02F0916F0298
:102E100082FD12C09081809171028F5F8F7320912B
:102E20007202821751F0E0917102F0E0E85AFD4F12
:102E3000958F8093710201C08081FF91EF919F91E6
:102E40008F912F910F900FBE0F901F9018951F928A
:102E50000F920FB60F9211242F933F934F935F93CE
:102E60006F937F938F939F93AF93BF93EF93FF9352
:102E700088E592E00E94F115FF91EF91BF91AF912B
:102E80009F918F917F916F915F914F913F912F9182
:102E90000F900FBE0F901F90189588E592E00E944A
:102EA000B61521E0892B09F420E0822F08951092B5
:102EB0005B0210925A0288EE93E0A0E0B0E08093AB
:102EC0005C0290935D02A0935E02B0935F0284E97E
:102ED00091E0909359028093580285EC90E0909392
:102EE00065028093640284EC90E090936702809383
:102EF000660280EC90E0909369028093680281EC16
:102F000090E090936B0280936A0282EC90E0909341
:102F10006D0280936C0286EC90E090936F02809338
:102F20006E0210927102109272021092730210924D
:102F300074020895CF92DF92EF92FF920F931F9346
:102F4000CF93DF937C016A01EB0100E010E00C15E8
:102F50001D0571F06991D701ED91FC910190F0810F
:102F6000E02DC7010995892B19F00F5F1F4FEFCF97
:102F7000C801DF91CF911F910F91FF90EF90DF90EB
:102F8000CF9008956115710581F0DB010D9000204F
:102F9000E9F7AD0141505109461B570BDC01ED919A
:102FA000FC910280F381E02D099480E090E0089587
:102FB0000C94C2174F925F926F927F92AF92BF9222
:102FC000CF92DF92EF92FF920F931F93CF93DF93F5
:102FD000CDB7DEB729013A01621B730B840B950B49
:102FE00029893A894B895C892A193B094C095D0971
:102FF000298B3A8B4B8B5C8B9B01AC0169897A895D
:103000008B899C890E94511AE418F5080609170952
:10301000A80197010E94831A2A0D3B1D4C1D5D1DBE
:10302000CA01B901DF91CF911F910F91FF90EF90ED
:10303000DF90CF90BF90AF907F906F905F904F9058
:1030400008950E940A1C08950E94C6140E94231825
:103050000E948E01C3EED5E10E94CD012097E1F3DD
:103060000E94E315F9CF0C94E31A08955058BB273A
:10307000AA270ED075C166D130F06BD120F031F4A3
:103080009F3F11F41EF45BC10EF4E095E7FB51C1C4
:10309000E92F77D180F3BA17620773078407950782
:1030A00018F071F49EF58FC10EF4E0950B2EBA2F37
:1030B000A02D0B01B90190010C01CA01A00111243E
:1030C000FF27591B99F0593F50F4503E68F11A16EA
:1030D000F040A22F232F342F4427585FF3CF46957B
:1030E00037952795A795F0405395C9F77EF41F169D
:1030F000BA0B620B730B840BBAF09150A1F0FF0F67
:10310000BB1F661F771F881FC2F70EC0BA0F621F52
:10311000731F841F48F4879577956795B795F79542
:103120009E3F08F0B3CF9395880F08F09927EE0FD4
:10313000979587950895D9D008F481E008950CD02B
:103140000FC107D140F0FED030F021F45F3F19F0FD
:10315000F0C0511139C1F3C014D198F39923C9F3C8
:103160005523B1F3951B550BBB27AA27621773078D
:10317000840738F09F5F5F4F220F331F441FAA1F41
:10318000A9F333D00E2E3AF0E0E830D09150504001
:10319000E695001CCAF729D0FE2F27D0660F771FAF
:1031A000881FBB1F261737074807AB07B0E809F091
:1031B000BB0B802DBF01FF2793585F4F2AF09E3F26
:1031C000510568F0B6C000C15F3FECF3983EDCF3F8
:1031D000869577956795B795F7959F5FC9F7880F9F
:1031E000911D9695879597F90895E1E0660F771FF1
:1031F000881FBB1F621773078407BA0720F0621B82
:10320000730B840BBA0BEE1F88F7E095089504D07A
:103210006894B111D9C00895BCD088F09F5790F040
:10322000B92F9927B751A0F0D1F0660F771F881FEB
:10323000991F1AF0BA95C9F712C0B13081F0C3D006
:10324000B1E00895C0C0672F782F8827B85F39F0A4
:10325000B93FCCF3869577956795B395D9F73EF44A
:1032600090958095709561957F4F8F4F9F4F0895F2
:10327000E89409C097FB3EF4909580957095619510
:103280007F4F8F4F9F4F9923A9F0F92F96E9BB27C6
:103290009395F695879577956795B795F111F8CF42
:1032A000FAF4BB0F11F460FF1BC06F5F7F4F8F4FAD
:1032B0009F4F16C0882311F096E911C0772321F0A3
:1032C0009EE8872F762F05C0662371F096E8862F3B
:1032D00070E060E02AF09A95660F771F881FDAF792
:1032E000880F9695879597F90895990F0008550FBF
:1032F000AA0BE0E8FEEF16161706E807F907C0F07C
:1033000012161306E407F50798F0621B730B840B83
:10331000950B39F40A2661F0232B242B252B21F45D
:1033200008950A2609F4A140A6958FEF811D811DFD
:10333000089597F99F6780E870E060E008959FEF37
:1033400080EC089500240A9416161706180609063C
:10335000089500240A94121613061406050608950B
:10336000092E0394000C11F4882352F0BB0F40F493
:10337000BF2B11F460FF04C06F5F7F4F8F4F9F4FD3
:10338000089557FD9058440F551F59F05F3F71F055
:103390004795880F97FB991F61F09F3F79F08795BC
:1033A0000895121613061406551FF2CF4695F1DF45
:1033B00008C0161617061806991FF1CF86957105D5
:1033C000610508940895E894BB2766277727CB0109
:1033D00097F908958ADF08F48FEF08950BD0C0CFD6
:1033E000B1DF28F0B6DF18F0952309F0A2CFA7CF00
:1033F0001124EACFC6DFA0F3959FD1F3950F50E0DB
:10340000551F629FF001729FBB27F00DB11D639F96
:10341000AA27F00DB11DAA1F649F6627B00DA11D3C
:10342000661F829F2227B00DA11D621F739FB00DE2
:10343000A11D621F839FA00D611D221F749F332752
:10344000A00D611D231F849F600D211D822F762FEB
:103450006A2F11249F5750408AF0E1F088234AF0E8
:10346000EE0FFF1FBB1F661F771F881F9150504034
:10347000A9F79E3F510570F05CCFA6CF5F3FECF3FC
:10348000983EDCF3869577956795B795F795E79520
:103490009F5FC1F7FE2B880F911D9695879597F931
:1034A0000895DB018F939F930E94A21ABF91AF9161
:1034B000A29F800D911DA39F900DB29F900D11248E
:1034C0000895A1E21A2EAA1BBB1BFD010DC0AA1F65
:1034D000BB1FEE1FFF1FA217B307E407F50720F07D
:1034E000A21BB30BE40BF50B661F771F881F991FF8
:1034F0001A9469F760957095809590959B01AC0141
:10350000BD01CF010895052E97FB1EF400940E9483
:103510009A1A57FD07D00E94611A07FC03D04EF497
:103520000C949A1A50954095309521953F4F4F4FE6
:103530005F4F089590958095709561957F4F8F4F5F
:103540009F4F08950E94B31AA59F900DB49F900DB0
:10355000A49F800D911D11240895EE0FFF1F05906B
:10356000F491E02D0994A29FB001B39FC001A39FE5
:10357000700D811D1124911DB29F700D811D1124AC
:10358000911D0895EF920F931F93CF93DF93E8015E
:1035900047FF02C034E101C034E0E42FFF27E7FD1C
:1035A000F095F7FF03C0F195E195F109E32E022FA5
:1035B0002E2FAE010E94371FCE01DF91CF911F91B8
:1035C0000F91EF900895CF93DF938230910510F41F
:1035D00082E090E0E091F702F091F80220E030E024
:1035E000A0E0B0E0309739F1408151814817590788
:1035F000B8F04817590771F482819381109729F028
:1036000013969C938E9312972CC09093F8028093FC
:10361000F70227C02115310531F04217530718F082
:10362000A901DB0101C0EF019A01BD01DF010280A8
:10363000F381E02DD7CF21153105F9F0281B390B87
:103640002430310580F48A819B816115710521F058
:10365000FB019383828304C09093F8028093F70266
:10366000FE01329644C0FE01E20FF31F8193919355
:1036700022503109398328833AC02091F5023091D4
:10368000F602232B41F42091020130910301309383
:10369000F6022093F50220910001309101012115DD
:1036A000310541F42DB73EB7409104015091050119
:1036B000241B350BE091F502F091F602E217F307B7
:1036C000A0F42E1B3F0B2817390778F0AC014E5F92
:1036D0005F4F2417350748F04E0F5F1F5093F602D7
:1036E0004093F5028193919302C0E0E0F0E0CF01B6
:1036F000DF91CF910895CF93DF93009709F487C0AE
:10370000FC01329713821282C091F702D091F80225
:10371000209781F420813181280F391F8091F50293
:103720009091F6028217930779F5F093F602E093F1
:10373000F5026DC0DE0120E030E0AE17BF0750F4A7
:1037400012964D915C9113979D014115510509F118
:10375000DA01F3CFB383A28340815181840F951F97
:103760008A179B0771F48D919C911197840F951F77
:1037700002969183808312968D919C9113979383E7
:1037800082832115310529F4F093F802E093F702C2
:103790003EC0D9011396FC93EE9312974D915D9123
:1037A000A40FB51FEA17FB0779F480819181840F7C
:1037B000951F0296D90111969C938E9382819381D5
:1037C00013969C938E931297E0E0F0E08A819B81A0
:1037D000009719F0FE01EC01F9CFCE010296288185
:1037E0003981820F931F2091F5023091F60228173C
:1037F000390769F4309729F41092F8021092F70211
:1038000002C013821282D093F602C093F502DF91B8
:10381000CF91089581E090E0F8940C947A22FC0115
:1038200088279927E89421912032E9F3293010F074
:103830002E30C8F32B3241F02D3239F4689404C095
:103840000E949B1C820F911D219120532A30C0F3AE
:103850001EF4909581959F4F08951F93FC01992721
:103860008827BC01E89411911032E9F3193010F067
:103870001E30C8F31B3251F01D3249F4689406C063
:103880000E94861C610F711D811D911D11911053A5
:103890001A30B0F33EF490958095709561957F4F06
:1038A0008F4F9F4F1F910895FB01DC0102C00190D3
:1038B0000D9241505040D8F70895FB01DC01415072
:1038C000504048F001900D920020C9F701C01D92B0
:1038D00041505040E0F70895BB274A3031F4992316
:1038E00022F4BDE2909581959F4F0C94C61CBB2796
:1038F0002A3051F4992342F4BDE290958095709559
:1039000061957F4F8F4F9F4F0C94A41C592F482FC8
:10391000372F262F660F771F881F991F660F771F77
:10392000881F991F620F731F841F951F660F771FD3
:10393000881F991F08957AE0979F902D879F802D6B
:10394000910D11240895BB27FA01A62F6217710566
:1039500081059105330B30FB66F0AA27660F771FB0
:10396000881F991FAA1FA21710F0A21B6395385039
:10397000A9F7A05DAA3308F0A95DA19336F7B111AC
:10398000B1931082CA010C94A321BB27FB015527D8
:10399000AA27880F991FAA1FA41710F0A41B8395AC
:1039A0005051B9F7A05DAA3308F0A95DA193009723
:1039B00079F7B111B1931192CB010C94A321AEE030
:1039C000B0E0E5EEFCE10C9451220D891E898F894F
:1039D000988D2EE02C831A83098397FF02C080E024
:1039E00090E801979E838D83AE01455E5F4F698DA0
:1039F0007A8DCE0101960E943B1D4D815E8157FD5F
:103A00000AC02F813885421753070CF49A01F80138
:103A1000E20FF31F10822E96E4E00C946D22AEE0CC
:103A2000B0E0E5E1FDE10C9451228C01CA014EE0C9
:103A30004C831A83098377FF02C060E070E861500D
:103A400071097E836D83A901BC01CE0101960E949C
:103A50003B1D4D815E8157FD0AC02F81388542177D
:103A600053070CF49A01F801E20FF31F10822E960F
:103A7000E4E00C946D22ACE0B0E0E1E4FDE10C94F4
:103A800043227C016B018A01FC011782168283812B
:103A900081FFBDC1CE0101964C01F7019381F60172
:103AA00093FD859193FF81916F01882309F4ABC148
:103AB000853239F493FD859193FF81916F018532B1
:103AC00029F4B70190E00E94B321E7CF512C312CAB
:103AD00020E02032A0F48B3269F030F4803259F0CB
:103AE000833269F420612CC08D3239F0803339F48F
:103AF000216026C02260246023C0286021C027FDE9
:103B000027C030ED380F3A3078F426FF06C0FAE0CF
:103B10005F9E300D1124532E13C08AE0389E300D65
:103B20001124332E20620CC08E3221F426FD6BC18D
:103B3000206406C08C3611F4206802C0883641F437
:103B4000F60193FD859193FF81916F018111C1CFA2
:103B5000982F9F7D9554933028F40C5F1F4FFFE3FF
:103B6000F9830DC0833631F0833771F0833509F066
:103B70005BC022C0F801808189830E5F1F4F4424FF
:103B80004394512C540115C03801F2E06F0E711CA2
:103B9000F801A080B18026FF03C0652D70E002C04F
:103BA0006FEF7FEFC5012C870E9498212C018301C4
:103BB0002C852F77222E17C03801F2E06F0E711C72
:103BC000F801A080B18026FF03C0652D70E002C01F
:103BD0006FEF7FEFC5012C870E948D212C012C8572
:103BE0002068222E830123FC1BC0832D90E0481601
:103BF0005906B0F4B70180E290E00E94B3213A94F4
:103C0000F4CFF50127FC859127FE81915F01B70173
:103C100090E00E94B32131103A94F1E04F1A51081C
:103C20004114510471F7E5C0843611F0893639F535
:103C3000F80127FF07C060817181828193810C5F49
:103C40001F4F08C060817181882777FD8095982F6C
:103C50000E5F1F4F2F76B22E97FF09C0909580956B
:103C6000709561957F4F8F4F9F4F2068B22E2AE04D
:103C700030E0A4010E94E521A82EA81844C0853791
:103C800029F42F7EB22E2AE030E025C0F22FF97FF2
:103C9000BF2E8F36C1F018F4883579F0B4C0803764
:103CA00019F0883721F0AFC02F2F2061B22EB4FE5B
:103CB0000DC08B2D8460B82E09C024FF0AC09F2F31
:103CC0009660B92E06C028E030E005C020E130E063
:103CD00002C020E132E0F801B7FE07C060817181C7
:103CE000828193810C5F1F4F06C06081718180E0EB
:103CF00090E00E5F1F4FA4010E94E521A82EA81896
:103D0000FB2DFF77BF2EB6FE0BC02B2D2E7FA514EB
:103D100050F4B4FE0AC0B2FC08C02B2D2E7E05C0A4
:103D20007A2C2B2D03C07A2C01C0752C24FF0DC0DA
:103D3000FE01EA0DF11D8081803311F4297E09C056
:103D400022FF06C07394739404C0822F867809F012
:103D5000739423FD13C020FF06C05A2C731418F46B
:103D6000530C5718732C731468F4B70180E290E079
:103D70002C870E94B32173942C85F5CF731410F413
:103D8000371801C0312C24FF12C0B70180E390E046
:103D90002C870E94B3212C8522FF17C021FF03C06E
:103DA00088E590E002C088E790E0B7010CC0822F60
:103DB000867859F021FD02C080E201C08BE227FD28
:103DC0008DE2B70190E00E94B321A51438F4B70149
:103DD00080E390E00E94B3215A94F7CFAA94F401B3
:103DE000EA0DF11D8081B70190E00E94B321A1107E
:103DF000F5CF332009F451CEB70180E290E00E9464
:103E0000B3213A94F6CFF7018681978102C08FEFF4
:103E10009FEF2C96E2E10C945F22DC01CB01FC01C8
:103E2000F999FECF06C0F2BDE1BDF89A319600B413
:103E30000D9241505040B8F70895F999FECF92BDC8
:103E400081BDF89A992780B50895262FF999FECF5C
:103E500092BD81BDF89A019700B4021639F01FBADD
:103E600020BD0FB6F894FA9AF99A0FBE08956F9292
:103E70007F929F92AF92BF92CF92DF92EF92FF928A
:103E80000F931F93CF93DF93CDB7DEB729970FB66C
:103E9000F894DEBF0FBECDBF6A01B22E102F0C33D7
:103EA00020F4FF24F394F00E02C04CE3F42E0F2D07
:103EB00027E0AE014F5F5F4F0E94B5207981272F29
:103EC0002970213031F0E1FC06C0E0FC06C060E062
:103ED00005C06DE203C06BE201C060E2AE2DA071CF
:103EE00073FF36C0662311F084E001C083E08B15B8
:103EF00010F4B81A01C0B12CA1110BC0F6018B2D22
:103F000090E2882319F091938150FBCFCB0CD11C08
:103F1000B12C662331F0F601608396012F5F3F4F8D
:103F20006901C6010396E2FE05C02EE4F601208376
:103F300031E404C02EE6F601208331E6318322838A
:103F4000FC012B2D30E22223F1F131932150FBCFE4
:103F500072FF40C0662311F084E001C083E08B153E
:103F600010F4B81A01C0B12CA1110BC0F6018B2DB1
:103F700090E2882319F091938150FBCFCB0CD11C98
:103F8000B12C662331F0F601608396012F5F3F4F1D
:103F90006901C6010396E2FE07C029E4F601208309
:103FA0002EE4218326E406C029E6F60120832EE6CE
:103FB000218326E62283FC012B2D30E2222319F0F7
:103FC00031932150FBCFFC01EB0DF11D10828EEFE0
:103FD0009FEFB7C0B1E0611101C0B0E04B2F50E0DE
:103FE0001816190624F49C012F5F3F4F02C021E0F0
:103FF00030E0240F351F112329F0412F50E04F5F8F
:104000005F4F02C040E050E0420F531F2B2D30E0C5
:104010004217530714F4B41A01C0B12C2E2D287185
:1040200059F4F6012B2D30E2222319F0319321505F
:10403000FBCFCB0CD11CB12CBB2331F0F60160833C
:1040400096012F5F3F4F6901A1110BC0F6012B2D87
:1040500030E3222319F031932150FBCFCB0CD11C3C
:10406000B12CF80E0A81372F3071A32E74FF03C0D4
:10407000013309F4FA941F142CF42F2D293018F071
:1040800028E001C021E0682F392F97FF02C060E0CF
:1040900030E0462F532F612C712C3EE2932EBC0151
:1040A000621B71099B01DC01A41BB50BE1E0F0E090
:1040B000EC0FFD1FAE0FBF1FE12EF12CF194E19428
:1040C000F1084F3FFFEF5F0731F4F6019082B60130
:1040D0006F5F7F4F6B01841795074CF024173507EE
:1040E00034F4BD01660D771DFB01118101C010E3A1
:1040F00041505109FFEF6F1A7F0AB6016F5F7F4F82
:104100004E155F0524F0F60110836B01DACF4817D6
:10411000590739F4063320F4053319F4A11001C00E
:1041200011E3F6011083FB018B2D90E2882319F037
:1041300091938150FBCFFB01EB0DF11D108280E0CC
:1041400090E029960FB6F894DEBF0FBECDBFDF9189
:10415000CF911F910F91FF90EF90DF90CF90BF9084
:10416000AF909F907F906F900895283008F027E0DF
:104170003327DA01990F311D87FD916000966105A3
:10418000710539F432602E5F3D9330E32A95E1F7F3
:1041900008959F3F30F080387105610509F03C5F5C
:1041A0003C5F3D93913008F08068911DDF93CF9381
:1041B0001F930F93FF92EF92192F987F9695E92FF7
:1041C00096959695E90FFF27EC5DFD4F99273327CC
:1041D000EE24FF24A701E70105900894079428F432
:1041E000360FE71EF81E491F511D660F771F881FE7
:1041F000991F0694A1F70590079428F4E70EF81E7E
:10420000491F561FC11D770F881F991F661F0694EF
:10421000A1F70590079428F4F80E491F561FC71FF1
:10422000D11D880F991F661F771F0694A1F705906F
:10423000079420F4490F561FC71FD81F990F661FF8
:10424000771F881F0694A9F784911095177041F085
:10425000D695C79557954795F794E7941A95C1F762
:10426000EAECF1E06894159015913591659195917E
:1042700005907FE27395E118F10A430B560BC90BC9
:10428000D009C0F7E10CF11E431F561FC91FD01DF6
:104290007EF4703311F48A95E6CFE894015030F043
:1042A000080F0AF40027021708F4202F2395022F85
:1042B0007A3328F079E37D932A95E9F710C07D934E
:1042C0002A9589F6069497956795379517951794CB
:1042D000E118F10A430B560BC90BD00998F023954E
:1042E0007E9173957A3308F070E37C932013B8F7CE
:1042F0007E9170617D9330F0839571E37D9370E3DF
:104300002A95E1F71124EF90FF900F911F91CF9123
:10431000DF91992787FD90950895FC0105906150E4
:1043200070400110D8F7809590958E0F9F1F0895CB
:10433000FC016150704001900110D8F78095909574
:104340008E0F9F1F0895DC01FC01672F7191772369
:10435000E1F7329704C07C916D9370836291AE1740
:10436000BF07C8F308950F931F93CF93DF93182FC0
:10437000092FEB018B8181FD03C08FEF9FEF20C0E0
:1043800082FF10C04E815F812C813D81421753070F
:104390007CF4E881F9819F012F5F3F4F39832883A7
:1043A000108306C0E885F985812F0995892B29F7A7
:1043B0002E813F812F5F3F4F3F832E83812F902F90
:1043C000DF91CF911F910F910895FA01AA2728300C
:1043D00051F1203181F1E8946F936E7F6E5F7F4FD2
:1043E0008F4F9F4FAF4FB1E03ED0B4E03CD0670F4E
:1043F000781F891F9A1FA11D680F791F8A1F911DA1
:10440000A11D6A0F711D811D911DA11D20D009F4F0
:1044100068943F912AE0269F11243019305D319332
:10442000DEF6CF010895462F4770405D4193B3E01B
:104430000FD0C9F7F6CF462F4F70405D4A3318F0C2
:10444000495D31FD4052419302D0A9F7EACFB4E073
:10445000A6959795879577956795BA95C9F700972B
:104460006105710508959B01AC010A2E06945795CC
:10447000479537952795BA95C9F7620F731F841F23
:10448000951FA01D08952F923F924F925F926F92B9
:104490007F928F929F92AF92BF92CF92DF92EF92D4
:1044A000FF920F931F93CF93DF93CDB7DEB7CA1B55
:1044B000DB0B0FB6F894DEBF0FBECDBF09942A8880
:1044C000398848885F846E847D848C849B84AA8428
:1044D000B984C884DF80EE80FD800C811B81AA81B5
:1044E000B981CE0FD11D0FB6F894DEBF0FBECDBF80
:0844F000ED010895F894FFCFDF
:1044F8000000F902800001000000FFFF8913891302
:1045080001322E3020323031362D30362D313900FF
:104518004567536C696D5261696E000000000021A7
:104528001821182118211800000000D803DA0317F1
:104538000466046661696C006263006F6B00312E6B
:10454800352E3100676174657761790073656E7324
:104558006F7200726570656174657200000000001A
:1045680021182118211821182118211821180000B4
:104578000000BA0C0B0DB70C620DA20DDE0DFC0D80
:104588000000000034169A17B615CF15C11512167B
:00000001FF
